:020000040000FA
:10000000B8052020D5000000D9000000D90000006C
:1000100000000000000000000000000000000000E0
:10002000000000000000000000000000DB000000F5
:100030000000000000000000DD000000DF00000004
:10004000E1000000E1100000E1000000E10000001C
:10005000E1000000E1000000E1000000E10000001C
:1000600000000000E1000000E100000000000000CE
:1000700000000000E1000000E1000000E1000000DD
:10008000E1190000E1000000E1000000E1000000D3
:10009000E1000000E100000000000000000000009E
:1000A000E1000000E100000000000000000000008E
:1000B000E100000000000000E1000000E10000009D
:1000C0000348854600F024FC00480047611A000000
:1000D000B805202003480047FEE7FEE7FEE7FEE7FD
:1000E000FEE70000C1000000F8B502464A40D40F08
:1000F00042004B0052085B089A4202D20246084670
:1001000011464A0023D0C30D4A00DDB2120EAD1ACB
:10011000202D35DA49020126490AF6058A19002CF4
:1001200000D0524220214F1B1146B9402A411018DD
:10013000C20D9A4221D0002C17D0012D08DCDA051F
:10014000801AD20F8019D207DBB200F0EBF9F8BDAC
:10015000DA05801A012340001B06C01880185A4295
:100160008018CA0F1043490007E04908C20711432D
:10017000DA05801A80194008801800F0CBF9F8BD24
:1001800061000122511A001BF7E70122D2075140FA
:10019000AAE70122D2075040A6E7024670B54A40BE
:1001A000D30FDB0740002DD04A002AD0010E140ED9
:1001B000000212020919400A520A8418E501044695
:1001C0005443000A120A2E045043A4194219200C69
:1001D000C543AA18120C0125AD03521C5219120472
:1001E0007F39240400D0521C104301D44000491E22
:1001F000C2B20C06C0092018401C4008802A02D058
:1002000003E0002070BD40084000002900DA002013
:10021000184370BD70B502464A40D50F40004A00F1
:10022000ED0740085208002814D0002A12D0C40D4F
:10023000D30D41020120C0055202490A520AE41AB4
:10024000091812187D34914201D3641C00E0490062
:10025000002C01DA002070BD0023914201D3891ADD
:100260000343400849000028F7D100290AD09142F1
:1002700002D10121C90705E0914201D2012101E02B
:100280000121C943E005C018401900F043F970BDD1
:10029000F0B51FB488B00B9909980024484009991B
:1002A000C00F490049080991C0070B990090490007
:1002B00049080B9109990898A64608431CD00B9948
:1002C0000A98084318D0099801244000420D4800BC
:1002D000410D099824050003000B204309900B9859
:1002E0000003000B20430B9050181C4940180022BB
:1002F00001901446104605E0002001460DB0F0BD07
:10030000032801DA034600E003239C46C11A0AAE23
:100310000AE05F0008ADED5B4F00F75B7D4300270F
:10032000AA187C41491C5B1E6145F2DD410004AB0B
:100330005A522104120C0A43240C401C0828DFDB0B
:10034000019802900099704601910090059B049AD3
:100350000799069800F02CF9D0E700000DFCFFFF8C
:100360000122D207002800DB101A002900DB511AF5
:10037000814201D90120704700207047C217C10F88
:10038000504010B54018CA079623002100F0CAF863
:1003900010BDC20F410040020123400ADB05D20715
:1003A000090EC0187F2901DA00207047962903DC66
:1003B0009623591AC84001E096398840002AF4D0A3
:1003C00040427047C20FD207400040080BD0C10D19
:1003D0000723DB01C91840020905400A1143C2087E
:1003E000400711437047002001467047CB0FDB07E1
:1003F000490010B5490802460A4307D00A0D0724F0
:100400000903E401090B121B002A01DC002010BDC6
:10041000C900440F0C43C100E018D205801800F059
:1004200079F810BD70B50446002903D000202022C1
:10043000012310E0002801D00020C043C046C04680
:100440000DE02546D5408D4205D30D469540641BF1
:100450001D46954040191546521E002DF1DC2146DF
:1004600070BD000070B5002504462E46002911D04D
:10047000002C01DA01254442002901DA0126494213
:100480002046FFF7CFFFB54200D04042002D00D0FC
:10049000494270BD002C02DA0121C90702E0002C9C
:1004A00000DD03490846C046C046214670BD000035
:1004B000FFFFFF7FF0B51FB40646002082B005465F
:1004C0004024019100901BE0019922460F463046DE
:1004D00000F040FA049A059B801A994110D3104607
:1004E0001946224600F026FA361A8F410197224615
:1004F00001200021009F00F01DFA38184D410090A6
:100500002046641E0028DFDC019B00982946324605
:1005100007B0F0BD002904DA401C490001D14008B1
:100520004000704770B40024050C05D1102400046D
:1005300002D1002921D01124050E01D10002083476
:10054000050F01D10001241D850F01D18000A41CDD
:10055000002801DB4000641C002908D020252E1B48
:100560000D46F540A14000D0012129430843010672
:100570001B1B000ADB1D02D5002070BC7047DB0589
:10058000181880180029F8DA401C4900F5D170BC11
:1005900040084000704710B5002B08DA0024401CCA
:1005A000614192185B411A4301D14008400010BDDF
:1005B000F0B51FB482B005460C0003D0084601F028
:1005C00005FD02E001F002FD2030024600902146C8
:1005D000284600F0AFF9049B059A04460F461843DD
:1005E0001143084314D0184610431BD000984021F3
:1005F0000A1A1846059900F0ADF905460E46009A0C
:100600000599049800F096F9084305D0012004E00C
:100610002046394607B0F0BD0020C11705430E4300
:100620002C43374300990E986305401A7905E40A74
:1006300000220C43FD0A0A3002D500200146E9E7FA
:100640000105101969410C9C0D9D00196941FFF7C6
:10065000A2FFDFE7F0B507460846584087B0C00F55
:10066000049048000E46590040084908BC1A8841C9
:1006700005D2384631461E4617460B4602465800FC
:10068000400810434CD0300D039040055900400DF8
:10069000490D0590401A0290402872DA1803012192
:1006A000000B09050843019004980092002805D02A
:1006B0000199524200208841009201900298402105
:1006C0000A1A0199009800F035F905460C466B4668
:1006D00007CB00F050F9C0197141039A0E0D0023A9
:1006E000D71756401A467A40164344D0049A002A37
:1006F0002DD0029A012A039A15DC1205C01A9141E5
:1007000001263605001C7141D20F059ED2070093C9
:10071000019202962A462346FFF74AFF07B0F0BD32
:1007200038463146FAE71605224A0F46B218C01A73
:10073000B74101210905001C4F4100187F411146B6
:1007400018187941E20F10436D19644113E0E20774
:100750006D0815436408C2071443039A0126120565
:10076000C01A91413605001C7141CE074008304344
:100770004908C01851412A462346FFF70CFFCDE730
:10078000FFE7049801224000C117121A00238B4191
:1007900004983146C417381AA141EEE730B4012459
:1007A000E407634030BC55E730B40124E4076140FE
:1007B00030BC4FE70000E0FFF0B50C465C4085B070
:1007C000E40FE40703944C000026640859009446A3
:1007D000490802460296224321D062460A431ED0AF
:1007E0006200570D4A000E032303550D01240246F3
:1007F0002C492405781B1B0B360B4018234326433A
:10080000614600901C46501AB44103D30098401C26
:10081000009002E0921800985B41002803DA002063
:10082000014605B0F0BD00200121090507468646B6
:1008300011E064461D46141BB54106D36546521BA4
:10084000B341744607430C43A646CD074008490808
:10085000284392185B4105460D43EAD110461843E0
:1008600013D06046194650407140084306D0604698
:10087000101AB34106D20122002306E00022012310
:10088000DB0702E00122D2435310009874460105B1
:10089000381C6141029C039D00196941FFF77BFEF2
:1008A000BFE70000FD0300004A0009030123090B14
:1008B0001B0519430A4B10B5520D9A4202DA00206B
:1008C000014610BD064B34339A4203DC9A1A00F0FD
:1008D00041F810BD034BD21800F02CF810BD0000F9
:1008E000FF030000CDFBFFFF10B5002904DB01244E
:1008F000E40740428C412146002B04DB1C460123C7
:10090000DB075242A341994200D1904210BD000042
:10091000064C0125064E05E0E36807CC2B430C3C52
:1009200098471034B442F7D3FFF7CEFBB02900004C
:10093000D029000010B5202A04DB0146203A91405E
:10094000002010BD914020239C1A0346E340194328
:10095000904010BD10B5202A04DB0846203AD04054
:10096000002110BD0B46D340D0402024A21A914054
:100970000843194610BD10B5202A06DBCB170846E0
:10098000203A1041C1170B4306E00B461341D040FB
:100990002024A21A91400843194610BD82B001904C
:1009A0000198811E091F00BFFCD2009102B0704760
:1009B00084B003900291019203980068009000981F
:1009C00001998843009000980299019A11400843C8
:1009D0000399086004B0704784B0039002910192BB
:1009E000039800680090009801998843009000984F
:1009F0000299019A114008430399086004B07047B6
:100A000084B00390029101920398006800900098CE
:100A100001998843009000980299019A1140084377
:100A20000399086004B0704784B00390029101926A
:100A300003980068009000980199884300900098FE
:100A40000299019A114008430399086004B0704765
:100A5000F0B589B0119C109D0F9E0E9F02910890D9
:100A600007A80190029800910199087006920593D9
:100A700004AA178003AB1E80069E059F3E43119F6C
:100A80003F013E43109F3E431B881B011E431288BB
:100A90001643089A0B781B01D21809235B02D65023
:100AA00009B0F0BDF0B58BB00B460A9009A80170F3
:100AB00008920A990278089C6568A668A789079039
:100AC000E089069020696469039402900698019079
:100AD0000097084611462A4605933346FFF7B8FFAC
:100AE0000A9807990978089A1378527804921A4656
:100AF000049B00F003F80BB0F0BD000070B588B0A7
:100B00001C4615460E46079006A8017005A90A70F6
:100B100004AA1370079B007880001818064BC018B1
:100B2000097812781143BF22039402950196FFF7CA
:100B30003FFF08B070BDC0461011000080B584B002
:100B400013460390029101A80280684600210180AB
:100B5000FFE76846008801A90988884215DAFFE79F
:100B6000039800F017F8002808D1FFE703980299CE
:100B70006A461288895C00F035F800E005E0FFE77E
:100B80000098401C69460880E3E76846008804B086
:100B900080BD000081B000900098044940580F21AA
:100BA000090208404142484101B070473C12000030
:100BB00080B582B0019000910198094940180099D0
:100BC00009780C22FFF708FF01980121090340185A
:100BD000009949780722FFF7FFFE02B080BDC046AA
:100BE0000410000082B00A46019068460170007847
:100BF000019991235B01C85002B0704780B58CB059
:100C00000B900A910A984079C00700285ED0FFE750
:100C10000A9800790028079004D0FFE70798202859
:100C20000CD017E00B9888210222069100F04EF9B3
:100C30000B980322069900F049F918E00B986F49C8
:100C40000222059100F042F90B980322059900F069
:100C50003DF90CE00B980521C9010222049100F036
:100C600035F90B980322049900F030F9FFE70B984F
:100C7000002102220391039B02921A46029B00F07C
:100C800041F90B980321039A01911146019B00F051
:100C900039F90B98029900910399039A039B00F08C
:100CA0006DF90B98019900910399039A039B00F049
:100CB00065F90B980399039A029B00F043F90B988E
:100CC0000399039A019B00F03DF9FFE70A98006839
:100CD00008900A98007908A908710A9880794871E3
:100CE0000B9800F003F80CB080BDC04680B58CB006
:100CF0000B900A910A9800790028099004D0FFE728
:100D00000998202812D02BE00B980A990968491EEF
:100D100000F090F90B9888210022089100F0D6F895
:100D20000B980122089900F0D1F82CE00B980A9951
:100D30000968491E00F07EF90B983049002207919E
:100D400000F0C4F80B980121079A06911146069A03
:100D500000F0BCF80B980699490700F05BF912E027
:100D60000B980A990968490800F064F90B98052165
:100D7000C9010022059100F0A9F80B9801220599FC
:100D800000F0A4F8FFE70B9800210491049A049B5B
:100D900000F0B8F80B980121049A03911146039BC7
:100DA00000F0B0F80B9804990091049A049B00F0AD
:100DB000E5F80B98039900910499049A049B00F0BC
:100DC000DDF80B980499049A049B00F0BBF80B988B
:100DD0000499049A039B00F0B5F80B9894494018C5
:100DE0000A990A7949790A4302210A43044902917E
:100DF0001146029AFFF704FE0CB080BD010400000A
:100E0000BFFF003080B584B003900291039802992F
:100E1000496800F00FF9029800782228019022D842
:100E20000198C0467844007940008744171C171C7D
:100E30001C1C1C1C1C1C1C1C1C1C1C1C111C111C08
:100E40001C1C1C1C1C1C1C1C1C1C1C1C111C110014
:100E500003980121490700F0DDF805E0039800211F
:100E600000F0D8F800E0FFE7039802990969002232
:100E7000009200F0A1F803980299C968009A009BBB
:100E800000F040F802980178007A01430398684A1C
:100E9000815004B080BDC04680B586B01346059031
:100EA000049103A802700599244A891802910078D8
:100EB000029980000818029002980499072292046F
:100EC0000193FFF79DFD06B080BDC04680B586B09A
:100ED00013460590049103A802700599074A8918E2
:100EE00002910078029980000818029002980499F3
:100EF000034A0193FFF784FD06B080BD701800001F
:100F0000DBB6C1FF10B586B01C4605900491039274
:100F100002A803700599094A89180191007801997E
:100F200080000818019001980499039A1143044A1B
:100F30000094FFF765FD06B010BDC04630180000F4
:100F40007777020010B586B01C4605900491039295
:100F500002A8037005993122D20189180191007805
:100F6000019980000818019001980499039A11438F
:100F70008F220094FFF744FD06B010BD10B586B077
:100F8000089C059004910392029301A804700599AE
:100F9000084A89180091007800998000081800908C
:100FA000049803990843029908430099086006B021
:100FB00010BDC0465018000084B013460390029143
:100FC00001A802700399064A8918009100780099D7
:100FD00080000818009002980099086004B07047DB
:100FE0001018000082B001900091009800780199DB
:100FF0003A4A88500098407801990122120388509B
:10100000009880780199024A885002B07047C04623
:101010000C11000080B582B0019000910198044944
:101020004018009903221207FFF7EAFC02B080BDC6
:101030000418000082B00190009100980199024AC2
:10104000885002B07047C0460818000081B0009078
:10105000009811210902425801239A43425001B0DD
:101060007047000080B584B0039002910398FFF7A9
:10107000EDFF039811210902401802990A888B7824
:101080001A4389880A430B4901911146019AFFF7D7
:10109000CBFC03980849401802998A79CB791A4306
:1010A000097A0A437E2100911146009AFFF7BCFCA1
:1010B00004B080BD186702000411000082B00190E6
:1010C0000091009800780199044A8850009840786F
:1010D000019901221203885002B0704708100000E5
:1010E000F0B581B00126194F384610380068184C09
:1010F000214610390D68800507D4E8070FD1E803B1
:1011000014D428061AD401B0F0BD7002009000F08B
:10111000CFF83868009908433860E807EFD000F04E
:10112000D9F8206830432060E803EAD5360400F09F
:10113000E1F82068304320602806E4D500F0EAF8A2
:10114000206880210143216001B0F0BD48100A40B1
:1011500048300A40F0B583B0694608704A48012417
:101160002246FFF7EBFC49480168890608D401686C
:10117000890605D40168890602D401688906F3D579
:10118000014608390A68424D2A40A0320A60021F0F
:101190001668404B1E40404FF619166006687606EA
:1011A00008D50668760605D50668760602D506686F
:1011B0007606F3D40668B60608D40668B60605D4E3
:1011C0000668B60602D40668B606F3D50E682E4049
:1011D000A12535430D600833116819402F4B0B438F
:1011E0001360416A090708D1416A090705D1416ABC
:1011F000090702D1416A0907F3D0416802AA1170B8
:10120000416A090708D1416A090705D1416A0907FE
:1012100002D1416A0907F3D0406801A9087001981A
:1012200002A909780002401800B2FFF7A7F8694642
:101230000A78343A0B2A23D8944061070ED1A106CC
:10124000490F19D12105490F1AD01549FEF7A5FFFD
:101250000721C906FEF7A1FF014611E08321C90558
:10126000FEF79BFFFFF7AEF80F4A104BFFF710F8A1
:10127000FFF7BCF8014603E00A49FEF7CBFF014641
:10128000084603B0F0BDC04600000F4018120F40E2
:1012900000F8FFFFF0FF00F0070001000700020068
:1012A000000034430000FA449A999999999923408F
:1012B00006480068C00501D5012001E00020C043B8
:1012C00003490A68801808607047C04680130A40C6
:1012D0000000202016480068800701D5012001E0A9
:1012E0000020C04302490A68801808607047C04661
:1012F000040020200E480068400401D5012001E0D0
:101300000020C04302490A68801808607047C04640
:101310000800202006480068400601D5012001E0B1
:101320000020C04303490A68801808607047C0461F
:1013300080330A400C00202080B512480221024A66
:10134000FFF7B0FB80BDC046EC28000080B50D481B
:101350000321024AFFF7A6FB80BDC0460429000016
:1013600080B508480021024AFFF79CFB80BDC046BB
:101370001C29000080B503480121034AFFF792FBB6
:1013800080BDC04600A042403429000080B5FFF770
:10139000DDFFFFF7D1FFFFF7EDFFFFF7E1FF80BDB6
:1013A000F0B584B0414B842101911966012200926D
:1013B00010023F4C20605966500203902060832049
:1013C00018672121C90102918039216058675003B3
:1013D0002060384F862078625005374908608820A1
:1013E000B86290050860354EF11C7960396050068E
:1013F0007D6805437D603D6805433D60B51C1D600B
:101400005D601D6805431D605D6805435D60822069
:10141000B861751CFD613C1F019A22603C46083C86
:101420002160B860FD6018655D65812018645864AE
:10143000DE649E6458639863DE621E6339460C392D
:101440000860D867103F3E609E67D8669866DE6584
:101450009E65194B18463038029901601960813E2B
:1014600017480168314301601648016A039B19431C
:1014700001620168194301600D4B1846303812496A
:101480000160196011480168114B0B430360016949
:10149000009A114301610F48016A0F4A114301622A
:1014A00001681143016004B0F0BDC04604804240B1
:1014B000D0320A4094804240D0120A408100040099
:1014C00090130A4028100A40348C000090330A40E0
:1014D0000140000028300A408100010080B5084822
:1014E0000849FFF765FB0320400207490A680243E9
:1014F0000A60012000020A6802430A6080BDC046FB
:1015000000200F404E29000000320F4010B5114856
:101510001149FFF74DFB0120020210490B46283B01
:101520001C6894431C600A46143A002313600A1F87
:101530001F2313600A6907239A430A611A020B6981
:1015400093430B610A68042313430B600A68024348
:101550000A6010BD00000F404C29000028120F4007
:10156000F0B581B02B4C2C492046FFF73BFD2B49B1
:101570002046FFF743FB00250095204629462A46D2
:101580002B46FFF7FBFC204629462A46FFF784FC42
:10159000204629462A46FFF70FFD012600962046E1
:1015A00029462A462B46FFF7E9FC204629463246C3
:1015B000FFF772FC204629463246FFF7FDFC022762
:1015C0000097204629462A462B46FFF7D7FC20469F
:1015D00029463A46FFF760FC204629463A46FFF77F
:1015E000EBFC03270097204629462A462B46FFF7A7
:1015F000C5FC204629463A46FFF74EFC20462946C0
:101600003A46FFF7D9FC064886600F21016001B019
:10161000F0BDC0460000864050290000542900005B
:1016200000118640F0B581B01A4C1B492046FFF7E7
:10163000D9FC1A492046FFF759FB002500952046A2
:1016400029462A462B46FFF799FC204629462A467A
:10165000FFF722FC7D20C600204631462A46FFF7D0
:10166000ABFC01270097204629462A462B46FFF768
:1016700085FC204629463A46FFF70EFC20463146B7
:101680003A46FFF799FC064887600321016001B0E4
:10169000F0BDC046008086405C2900006029000043
:1016A000009186401048002101600320C1430F488B
:1016B000021F13680B40136041680122914341608F
:1016C000110242688A4342600168302291430160FE
:1016D00001680F2291430160FF20000204490A685B
:1016E00082430A607047C04608030B4004010B4068
:1016F00000E400E010B50C4C0C492046FFF772FCEA
:101700000B492046FFF77EFB0A480168012211437E
:1017100001600948016840230B43BF218B430360EC
:101720000648026010BDC04600400840682900001D
:101730006C2900002850084010E400E008510840DF
:1017400010B5154C15492046FFF7B8FC1449204642
:10175000FFF788FC0320C103124802688A43026035
:1017600011490A68624B134011330B604A68172312
:101770001343282293434B60416801221140436880
:1017800093435918416001467839D3020B600168D0
:101790001143016010BDC046000050408029000088
:1017A00082290000001150401011504010B5154C16
:1017B00015492046FFF782FC14492046FFF752FCEA
:1017C0000320C103124802688A43026011490A6873
:1017D000474B1340D0330B604A68152313432A222A
:1017E00093434B6041680122114043689343591869
:1017F000416001467839D3020B60016811430160F2
:1018000010BDC046002010408C2900008E29000029
:10181000003110401031104010B5154C15492046CC
:10182000FFF74CFC14492046FFF71CFC0320C103C2
:10183000124802688A43026011490A682C4B13401F
:10184000D0330B604A68152313432A2293434B601D
:101850004168012211404368934359184160014691
:101860007839D3020B6001681143016010BDC04696
:1018700000801040982900009A2900000091104033
:101880001091104010B5154C15492046FFF716FC75
:1018900014492046FFF7E6FB0320C1031248026803
:1018A0008A43026011490A68114B1340D0330B6020
:1018B0004A68152313432A2293434B60416801224F
:1018C0001140436893435918416001467839D30267
:1018D0000B6001681143016010BDC046000010405C
:1018E000A4290000A629000000111040101110408A
:1018F0000000FFFF80B500F029F8FFF751FDFFF76A
:10190000D1FEFFF72DFEFFF78DFEFFF7F3FEFFF789
:10191000E5FDFFF7FBFDFFF749FFFFF711FFFFF7BD
:10192000B1FFFFF779FFFFF731FD74200449002272
:101930000A54B82003490A542C2003490A5480BD94
:101940000C0220205001202084022020F0B581B01C
:101950001648174A426017484260174842601748C5
:10196000426017484260174E7260174F7A60174CFA
:101970006260174B5A6017494A6017484260174A1D
:101980000A4D2A600B4D2A600B4D2A600B4D2A60D0
:101990000B4D2A6032603A6022601A600A60026071
:1019A0001020FEF7FBFF01B0F0BDC04600080A4062
:1019B000030000B100280A400008864000888640E5
:1019C0000048084000280F4000080F400028104041
:1019D0000008504000081040008810400100002618
:1019E000B0B50C480068C0B2012811D101242046CE
:1019F00000F01AF8084D2860022000F015F8074999
:101A0000086000F047F82A6805A1204600F07CF93C
:101A1000B0BDC04620500840F800202048012020DA
:101A200025640D0A00000000401EC1B2032909D838
:101A300040B2800004A108580168074A02600748C4
:101A40000818704700207047000020200400202064
:101A5000080020200C002020FFEF00000110FFFFF5
:101A6000FFF748FF08A40A4D3D20FFF773FBFEF780
:101A7000A9FC02460B460120214600F045F9284604
:101A8000FEF78CFFF0E7C04625660D0A0000000057
:101A9000006A1800F0B581B084480068FEF76EFC5B
:101AA000044683480068FEF769FC024681482146E7
:101AB00000F086F90446804E3068FEF75FFC014670
:101AC0002046FEF711FBFEF764FC30607B4800689F
:101AD000FEF754FC04467A480068FEF74FFC0246C5
:101AE0007848214600F06CF90446774D2868FEF7E7
:101AF00045FC01462046FEF7F7FAFEF74AFC28604F
:101B000072480068FEF73AFC044671480068FEF728
:101B100035FC02466F48214600F052F904466E4FEC
:101B20003868FEF72BFC01462046FEF7DDFAFEF78B
:101B300030FC386069480068FEF720FC04466848BD
:101B40000068FEF71BFC02466648214600F038F9A3
:101B50000446654D2868FEF711FC01462046FEF755
:101B6000C3FAFEF716FC2860326801245FA1204604
:101B700000F0CAF831685F4EB14200DC31465E4B7E
:101B800099420A4600DB1A464B4802604E480068FC
:101B9000B04200DC30463D46984200DB18464A4FD2
:101BA00038602F462868B04200DC304698424E4DDF
:101BB00000DB184638602868B04200DC30469842A6
:101BC00000DB184628604D48012904DB0146103926
:101BD00010220A6003E0002A2BD41021016020218A
:101BE000016039490A684649012A04DB0A46103A6D
:101BF0008023136003E0002A21D480220A6004229B
:101C000002603E682303E203012E01DB103901E08C
:101C1000002E1BD40B6002602B68A102E202012B94
:101C200003DB0346103B1A6019E0002B13D402605B
:101C300015E00146103920220A601021D0E7024643
:101C4000103A0423136080220A60DAE70646103E49
:101C500032600B60E0E70346103B196011460160FB
:101C600015480068C1174840411A264C00222046FA
:101C7000FFF7A2F914480068C1174840411A012231
:101C80002046FFF799F93868C1174840411A0222E7
:101C90002046FFF791F92868C1174840411A0322EE
:101CA0002046FFF789F901B0F0BDC046F8002020BA
:101CB000FC002020B4002020B0002020480120207B
:101CC0004C01202004012020000120205800202069
:101CD0005C0020201400202010002020A8002020DC
:101CE000AC002020640020206000202025640D0A24
:101CF00000000000F1D8FFFF0F270000A0320A40CB
:101D0000A0120A400000864082B070B582B00D4635
:101D100006460692079306AB0193214C21492046C3
:101D20002A4600F03BF9711E032930D8794409791D
:101D300049008F44010C17221B494C621E4A8A62DB
:101D400080B2C862086A022202430A621FE0164992
:101D50004C63184A8A6380B2C863086B022202434C
:101D60000A6314E010494C60114A8A6080B2C8606E
:101D70000868022202430A6009E00B494C610B4AE1
:101D80008A6180B2C8610869022202430A610B4875
:101D9000FEF704FE02B070BC01BC02B00047C046B2
:101DA000B4022020FF01000000B242402011104088
:101DB000209110402031104020115040007102004D
:101DC000F0B591B007461046FEF7DFF93C461834EF
:101DD00039688A00A0507D68481C2946FEF742FBFE
:101DE00039600029284600D0084680000019001FED
:101DF00000680690012D04940395029143DB0320B3
:101E000029460140059179690891691E03290197C6
:101E100066D200252E4605980028019F34D0A800E0
:101E20003D18AC6920460899FEF79AFA012100286E
:101E3000109100D0CC0730462146FEF755F90646F2
:101E40000598012820D0EC6920460899FEF788FA09
:101E5000002801D01098C40730462146FEF744F907
:101E60000646059802280FD02C6A20460899FEF7EE
:101E700077FA002801D01099CC0730462146FEF7AA
:101E800033F9064600E00026386C002817D00024FD
:101E90003C64F9683046FEF780F90546B868069953
:101EA000FEF77BF92946FEF71FF9054638692146FA
:101EB000FEF773F92946FEF717F911B0F0BD029B42
:101EC000581E58D0002B049A03995FD080001058F8
:101ED0009900891808390968FEF757F90446D8E7C8
:101EE00085430795243700252E4608E03146FEF746
:101EF000FBF8064610372D1D0798A8428BD0109688
:101F000038460C3804682046089E3146FEF728FA09
:101F10000C9038460838006809903146FEF720FAE0
:101F20000D90381F00680A903146FEF719FA0E909E
:101F300038680B903146FEF713FA0F900120C60760
:101F40000C980028314600D121461098FEF7CCF8B5
:101F50000D990029314600D10999FEF7C5F80E996F
:101F60000029314600D10A99FEF7BEF80F990029E1
:101F7000BCD10B9EBAE70398800004994018001F5B
:101F80000168B869FEF701F9044682E7880038184D
:101F900001694069FEF7F9F804467AE77CB51D4609
:101FA00016460C0001D0611E00E000210191009056
:101FB000054B6A462946304600F0F0F8002C02D066
:101FC000009A002111707CBDD52800002021020C50
:101FD00001D010211046020A01D01046083902092A
:101FE00001D01046091F820801D01046891E420800
:101FF00001D0881E7047081A7047000000000000DA
:1020000002E008C8121F08C1002AFAD17047000078
:102010007047000000000000002001E001C1121F15
:10202000002AFBD170470000F0B51FB486B00998B4
:10203000089A030D0021024314D05148514A181840
:10204000504305141198012810981AD0281A401CE2
:1020500000264D4F4D49009601910490002812DA58
:10206000444211E01198012449A3012801D110989C
:10207000C1430698119A84600360C26041600BB04E
:10208000F0BD4042E4E70446210500203F4A001C21
:1020900051410391029012E0E00707D032463B46DF
:1020A00001990098FEF7F4F80191009032463B4602
:1020B00010461946FEF7ECF806460F466410002C51
:1020C000EAD10498039B0028029A0999089806DA35
:1020D000FEF7DEF8019B009AFEF7DAF805E0FEF75E
:1020E0006BFB019B009AFEF767FB04460E4600223D
:1020F000284BFEF7F9FB03D80020C043014607E058
:102100000022254B20463146FEF7A4FAFEF7CCFB11
:10211000102409E0002C0ADB0A220023FEF7CAF98A
:10212000079B30321A55641E02460A43F2D111222F
:10213000641C079B121B1C19119B012B03D001234C
:1021400008430ED10AE0084304D01120109000206B
:10215000119077E71098151A6D1E0BE010988242C7
:1021600002DD00236D1C03E0824201DA00236D1EB4
:10217000002BEED0069811998260C16030C07EE7D6
:1021800001FCFFFF104D0000000014400000F03F74
:10219000300000000000F0430000E03FFFB597B0C2
:1021A0000646002518E2252877D100242746FD4958
:1021B000049400E00443761C32780120203A9040D9
:1021C0000842F7D130782A280ED002223078014612
:1021D0003039092916D804990A235943303940184F
:1021E0001443761C0490F1E7189802C804911890E3
:1021F000002904DA012040030443484204900220ED
:102200000443761C30782E2814D1042004437078BF
:10221000761C2A2809D11898761C80C8189009E0E5
:102220000A214F43303FC719761C307801463039B8
:102230000929F5D930786C2810D006DC4C281AD042
:1022400068280ED06A2817D104E0742813D07A28A1
:1022500012D110E00120400504430CE001210905E2
:1022600001E0032109050C437178814203D101206B
:1022700000052418761C761C3078119066280BD047
:1022800013DC58287DD009DC00287BD04528F6D007
:102290004628F4D047281AD1A5E118E0632835D0A4
:1022A000642870D0652812D19DE170286CD008DCBC
:1022B0006728F1D069287BD06E280DD06F2806D111
:1022C000BAE073282ED0752871D0782859D01A9A80
:1022D000199990476D1C7EE16002400F022809D0D9
:1022E00003280DD00428189801680DD00D60001D3A
:1022F000189070E11898EA1701680D604A60F6E7D7
:10230000189801680D80F2E70D70F0E718986A469A
:1023100001781172001D18900020507202A80090E0
:10232000012005E0189802C8189000200091C043D1
:1023300061070DD5002101E00199491C0191B942C5
:1023400012DA8142F8DB009A515C0029F4D10BE0EB
:10235000002101E00199491C01918142FADB019AB7
:102360000099895C0029F5D1019904981A9B471AB4
:1023700021463846199A00F097FA019940194518F4
:102380000BE04FE02CE113E04EE00098009900785C
:10239000491C00911A9A199990470198401E019082
:1023A000401CF2D1214638461A9B199A10E137E0B9
:1023B0000A200021009001916002410F022907D0FC
:1023C000189A01CA1892C2179446032908D00AE045
:1023D0001898C01DC108C90005C91891944607E0A6
:1023E00000B2C2179446042902D140B2C1178C46EC
:1023F00000226146944506DA0A4600214042914196
:102400008C462D2102E0210504D52B216A4611734B
:10241000012103E0E10701D02021F7E7029155E017
:102420000A200AE0102008E010200090002104207B
:1024300004430191082703E0082000210191009046
:102440006002410F022907D0189A01CA189200228F
:102450009446032908D008E01898C01DC108C90097
:1024600005C91891944603E080B2042900D1C0B296
:1024700000210291210729D51199702906D0009ACF
:102480001021019B4A401A4305D00EE040216A46C4
:102490001173012108E06146014306D030216A46EC
:1024A00011731199517302210291009A0821019B25
:1024B0004A401A430AD16146014301D1610705D55B
:1024C00030216A46117301217F1E0291119958290A
:1024D00004D035A10E910DA90D910DE037A1F9E7BA
:1024E0006146019B009AFDF7E5FF0E9B8C469B5CC5
:1024F0000D9A521E0D92137061460143F0D10D9852
:1025000005A9081A20300190600703D501200004B6
:10251000844300E001270198874201DD381A00E07A
:102520000020019900904118029809180498401A57
:102530000490E00306D421461A9B199A049800F0EF
:10254000B3F94519002706E003A81A9AC05D199946
:1025500090476D1C7F1C02988742F5DBE0030CD589
:1025600021461A9B199A049800F09EF9451904E037
:102570001A9A3020199990476D1C0099481E0090B6
:102580000029F5DC08E00D980D990078491C0D91A3
:102590001A9A199990476D1C0199481E01900029BB
:1025A000F1DC63E10928010030313233343536374C
:1025B000383961626364656600000000303132338F
:1025C000343536373839414243444546000000002F
:1025D00000F05AF94519761C3078002800D0E2E561
:1025E00028461BB0F0BD600700D406271898C01D10
:1025F000C108C90048680A680831C30FDB07189191
:10260000190001D09CA108E0210501D59BA104E09F
:10261000E10701D09AA100E09AA1430011985B085C
:10262000109165280CD006DC452809D046281DD01D
:10263000472841D141E0662818D067283CD13CE0CA
:102640000021112F01DB112000E0781C0191009086
:1026500008A911A8FFF7E8FC139905910021119A28
:1026600015927F1C12980197009150E00120C0073D
:1026700003900120019008A9009711A8FFF7D4FC4E
:10268000139A149905920022119B009212981593A7
:10269000059A0192002901D0104602E0791C4018E9
:1026A0000190381A01D5019804E04042401E009084
:1026B000781C0190C01B029043E0012F00DA012733
:1026C0000021112F01DD112000E03846019100901A
:1026D00008A911A8FFF7A8FC13990591119A0021E8
:1026E000129815920091019721070CD40599B942CF
:1026F00001DB019900E00191012904DD159A491ED1
:10270000515C302906D0B84201DA011D05DA0121F9
:10271000029115E00199491EEDE7002805DC0099BA
:10272000411800910199091A03E0019A411C914254
:1027300000DD01910099401A401C02900120C00761
:102740000390200706D402990198814202DB002001
:10275000C043029000206946C87707AF0121039863
:102760000337C907884224D0022011902B201290F1
:10277000039800280CDA404203902D20129007E0C5
:102780000A210398FDF74EFE30317F1E0390397009
:102790001199481E11900029F2DC03980028EFD10E
:1027A000791E129808703078202108404530BF1EED
:1027B000387006A8C01BC01D039010980078002830
:1027C00000D00120019941180298C01709180398F8
:1027D00009180498401A401E0490E00306D42146CC
:1027E0001A9B199A049800F05FF845191098007820
:1027F000002803D01A9A199990476D1CE00324D53C
:1028000021461A9B199A049800F04EF845191CE0CD
:102810000098002807DB00990598884203DD159889
:10282000405C199901E0199930201A9A9047009854
:102830006D1C401C00900298401E0290002804D19C
:102840001A9A2E20199990476D1C0199481E0190E3
:102850000029DDDC05E038781A9A7F1C1999904729
:102860006D1C0399481E03900029F4DC21461A9B35
:10287000199A0498ACE600002D0000002B0000001F
:102880002000000000000000F8B5044600251E46A8
:102890001746880404D405E039462020B0476D1C53
:1028A000641EF9D52846F8BDFFB50446002581B061
:1028B0001E46C80301D5302700E02027880404D530
:1028C00005E038460399B0476D1C641EF9D52846CB
:1028D00005B0F0BD4A68002A06D00A68531C0B6098
:1028E00010704868401E48607047000010000000EB
:1028F00000000000000000000000000000000300D5
:1029000000000000160000000000000000000000B1
:1029100000000000000003000000000012000000A2
:1029200000000000000000000000000000000300A4
:102930000000000014000000000000000000000083
:102940000000000000000300000000000800080074
:10295000080000001027000020010100080000000E
:10296000E8030000000000000800FF000200000073
:10297000D330000000000000000000000000000054
:1029800008000000180000000030000008000000EF
:1029900018000000003000000800000018000000CF
:1029A00000300000080000001800000000300000A7
:1029B000D0290000000020201000000000200000AE
:1029C000E029000010002020A805000018200000C9
:1029D000FFEF0000FFEF0000FFEF0000FFEF00003F
:04000005000000C136
:00000001FF
