:020000040000FA
:1000000080042020D5000000D9000000D9000000A5
:1000100000000000000000000000000000000000E0
:10002000000000000000000000000000DB000000F5
:100030000000000000000000DD000000DF00000004
:10004000E1000000150D0000E1000000E1000000EB
:10005000E1000000E1000000E1000000E10000001C
:1000600000000000E1000000E100000000000000CE
:1000700000000000E1000000E1000000E1000000DD
:1000800041140000E1000000E1000000E100000078
:10009000E1000000E100000000000000000000009E
:1000A000E1000000E100000000000000000000008E
:1000B000E100000000000000E1000000E10000009D
:1000C0000348854600F0B8FA00480047F1140000E4
:1000D0008004202003480047FEE7FEE7FEE7FEE736
:1000E000FEE70000C1000000F0B507460846584092
:1000F00087B0C00F049048000E46590040084908D8
:10010000BC1A884105D2384631461E4617460B4672
:1001100002465800400810434CD0300D0390400573
:100120005900400D490D0590401A0290402872DA9E
:1001300018030121000B090508430190049800925F
:10014000002805D001995242002088410092019078
:10015000029840210A1A0199009800F02EF90546EC
:100160000C466B4607CB00F049F9C0197141039A60
:100170000E0D0023D71756401A467A40164344D036
:10018000049A002A2DD0029A012A039A15DC12053E
:10019000C01A914101263605001C7141D20F059EFF
:1001A000D2070093019202962A46234600F046F9B0
:1001B00007B0F0BD38463146FAE71605224A0F4629
:1001C000B218C01AB74101210905001C4F4100189F
:1001D0007F41114618187941E20F10436D196441AF
:1001E00013E0E2076D0815436408C2071443039A3D
:1001F00001261205C01A91413605001C7141CE0737
:10020000400830434908C01851412A46234600F0AF
:1002100008F9CDE7FFE7049801224000C117121A40
:1002200000238B4104983146C417381AA141EEE7E8
:1002300030B40124E407634030BC55E730B40124F6
:10024000E407614030BC4FE70000E0FFF0B51FB4A9
:1002500088B00B990998002448400999C00F4900BB
:1002600049080991C0070B990090490049080B9172
:1002700009990898A64608431CD00B990A98084388
:1002800018D0099801244000420D4800410D0998FA
:1002900024050003000B204309900B980003000B7A
:1002A00020430B9050181C4940180022019014461E
:1002B000104605E0002001460DB0F0BD032801DA2C
:1002C000034600E003239C46C11A0AAE0AE05F0021
:1002D00008ADED5B4F00F75B7D430027AA187C411A
:1002E000491C5B1E6145F2DD410004AB5A522104FA
:1002F000120C0A43240C401C0828DFDB01980290F2
:100300000099704601910090059B049A0799069800
:1003100000F094F8D0E700000DFCFFFF70B5044634
:10032000002903D000202022012310E0002801D062
:100330000020C043C046C0460DE02546D5408D4252
:1003400005D30D469540641B1D4695404019154642
:10035000521E002DF1DC214670BDF0B51FB40646DB
:10036000002082B005464024019100901BE00199D5
:1003700022460F46304600F030F8049A059B801A5A
:10038000994110D310461946224600F016F8361A45
:100390008F410197224601200021009F00F00DF8B7
:1003A00038184D4100902046641E0028DFDC019B78
:1003B00000982946324607B0F0BD10B5202A04DB6C
:1003C0000146203A9140002010BD914020239C1A04
:1003D0000346E3401943904010BD10B5202A04DBCA
:1003E0000846203AD040002110BD0B46D340D040F3
:1003F0002024A21A91400843194610BD10B5202AA6
:1004000006DBCB170846203A1041C1170B4306E024
:100410000B461341D0402024A21A914008431946AC
:1004200010BD10B5002B08DA0024401C6141921861
:100430005B411A4301D14008400010BDF0B51FB424
:1004400082B005460C0003D0084601F0E5F802E052
:1004500001F0E2F820300246009021462846FFF7DE
:10046000ACFF049B059A04460F461843114308430A
:1004700014D0184610431BD0009840210A1A184681
:100480000599FFF7AAFF05460E46009A05990498BC
:10049000FFF793FF084305D0012004E020463946CA
:1004A00007B0F0BD0020C11705430E432C4337436E
:1004B00000990E986305401A7905E40A00220C435E
:1004C000FD0A0A3002D500200146E9E701051019AE
:1004D00069410C9C0D9D00196941FFF7A2FFDFE700
:1004E000F0B50C465C4085B0E40FE40703944C0083
:1004F00000266408590094464908024602962243A1
:1005000021D062460A431ED06200570D4A000E03F6
:100510002303550D012402462C492405781B1B0B8F
:10052000360B401823432643614600901C46501A60
:10053000B44103D30098401C009002E09218009848
:100540005B41002803DA0020014605B0F0BD002021
:10055000012109050746864611E064461D46141B25
:10056000B54106D36546521BB341744607430C435D
:10057000A646CD0740084908284392185B41054626
:100580000D43EAD11046184313D060461946504037
:100590007140084306D06046101AB34106D20122CA
:1005A000002306E000220123DB0702E00122D24300
:1005B0005310009874460105381C6141029C039D4C
:1005C00000196941FFF72DFFBFE70000FD030000A0
:1005D0004A0009030123090B1B0519430A4B10B5F7
:1005E000520D9A4202DA0020014610BD064B343308
:1005F0009A4203DC9A1AFFF7F0FE10BD034BD218A3
:10060000FFF7DBFE10BD0000FF030000CDFBFFFF86
:1006100010B5002904DB0124E40740428C41214647
:10062000002B04DB1C460123DB075242A341994205
:1006300000D1904210BD0000064C0125064E05E099
:10064000E36807CC2B430C3C98471034B442F7D3F3
:10065000FFF73AFD002000002020000082B001904A
:100660000198811E091F00BFFCD2009102B07047A3
:1006700084B0039002910192039800680090009862
:1006800001998843009000980299019A114008430B
:100690000399086004B0704784B0039002910192FE
:1006A0000398006800900098019988430090009892
:1006B0000299019A114008430399086004B07047F9
:1006C00084B0039002910192039800680090009812
:1006D00001998843009000980299019A11400843BB
:1006E0000399086004B0704784B0039002910192AE
:1006F0000398006800900098019988430090009842
:100700000299019A114008430399086004B07047A8
:10071000F0B589B0119C109D0F9E0E9F029108901C
:1007200007A801900298009101990870069205931C
:1007300004AA178003AB1E80069E059F3E43119FAF
:100740003F013E43109F3E431B881B011E431288FE
:100750001643089A0B781B01D21809235B02D65066
:1007600009B0F0BDF0B58BB00B460A9009A8017036
:1007700008920A990278089C6568A668A78907907C
:10078000E0890690206964690394029006980190BC
:100790000097084611462A4605933346FFF7B8FFEF
:1007A0000A9807990978089A1378527804921A4699
:1007B000049B00F003F80BB0F0BD000070B588B0EA
:1007C0001C4615460E46079006A8017005A90A703A
:1007D00004AA1370079B007880001818064BC018F5
:1007E000097812781143BF22039402950196FFF70E
:1007F0003FFF08B070BDC0461011000080B582B048
:1008000001900091019809494018009909780C223B
:10081000FFF742FF01980121090340180099497828
:100820000722FFF739FF02B080BDC0460410000068
:1008300080B58CB00B900A910A984079C0070028C7
:100840005ED0FFE70A9800790028079004D0FFE700
:10085000079820280CD017E00B98882102220691D7
:1008600000F04EF90B980322069900F049F918E0C0
:100870000B986F490222059100F042F90B98032270
:10088000059900F03DF90CE00B980521C901022201
:10089000049100F035F90B980322049900F030F927
:1008A000FFE70B98002102220391039B02921A4654
:1008B000029B00F041F90B980321039A0191114624
:1008C000019B00F039F90B98029900910399039A62
:1008D000039B00F06DF90B98019900910399039A1D
:1008E000039B00F065F90B980399039A029B00F0B3
:1008F00043F90B980399039A019B00F03DF9FFE738
:100900000A98006808900A98007908A908710A985E
:10091000807948710B9800F003F80CB080BDC04698
:1009200080B58CB00B900A910A9800790028099044
:1009300004D0FFE70998202812D02BE00B980A99E1
:100940000968491E00F090F90B988821002208914F
:1009500000F0D6F80B980122089900F0D1F82CE0AD
:100960000B980A990968491E00F07EF90B983049E6
:100970000022079100F0C4F80B980121079A069114
:100980001146069A00F0BCF80B980699490700F04A
:100990005BF912E00B980A990968490800F064F9BC
:1009A0000B980521C9010022059100F0A9F80B98C8
:1009B0000122059900F0A4F8FFE70B9800210491AB
:1009C000049A049B00F0B8F80B980121049A039153
:1009D0001146039B00F0B0F80B9804990091049A1B
:1009E000049B00F0E5F80B98039900910499049A90
:1009F000049B00F0DDF80B980499049A049B00F026
:100A0000BBF80B980499049A039B00F0B5F80B9877
:100A1000944940180A990A7949790A4302210A43FC
:100A2000044902911146029AFFF74AFE0CB080BDBC
:100A300001040000BFFF003080B584B00390029134
:100A400003980299496800F00FF90298007822286B
:100A5000019022D80198C04678440079400087442C
:100A6000171C171C1C1C1C1C1C1C1C1C1C1C1C1CD0
:100A7000111C111C1C1C1C1C1C1C1C1C1C1C1C1CCC
:100A8000111C110003980121490700F0DDF805E071
:100A90000398002100F0D8F800E0FFE703980299DE
:100AA00009690022009200F0A1F803980299C96830
:100AB000009A009B00F040F802980178007A014308
:100AC0000398684A815004B080BDC04680B586B0A6
:100AD00013460590049103A802700599244A8918C9
:100AE00002910078029980000818029002980499F7
:100AF000072292040193FFF7E3FD06B080BDC046D4
:100B000080B586B013460590049103A8027005993C
:100B1000074A89180291007802998000081802900B
:100B200002980499034A0193FFF7CAFD06B080BDFD
:100B300070180000DBB6C1FF10B586B01C460590EA
:100B40000491039202A803700599094A891801913A
:100B50000078019980000818019001980499039A7F
:100B60001143044A0094FFF7ABFD06B010BDC04628
:100B7000301800007777020010B586B01C4605904B
:100B80000491039202A8037005993122D2018918B9
:100B9000019100780199800008180190019804994A
:100BA000039A11438F220094FFF78AFD06B010BD0F
:100BB00010B586B0089C059004910392029301A899
:100BC00004700599084A89180091007800998000FE
:100BD0000818009004980399084302990843009963
:100BE000086006B010BDC0465018000084B013461F
:100BF0000390029101A802700399064A8918009196
:100C00000078009980000818009002980099086008
:100C100004B070471018000082B001900091009855
:100C2000007801993A4A8850009840780199012249
:100C300012038850009880780199024A885002B0C7
:100C40007047C0460C11000080B582B00190009141
:100C5000019804494018009903221207FFF730FD5C
:100C600002B080BD0418000082B00190009100988D
:100C70000199024A885002B07047C0460818000027
:100C800081B00090009811210902425801239A4333
:100C9000425001B07047000080B584B003900291CB
:100CA0000398FFF7EDFF03981121090240180299FC
:100CB0000A888B781A4389880A430B4901911146A7
:100CC000019AFFF711FD03980849401802998A79A3
:100CD000CB791A43097A0A437E2100911146009A82
:100CE000FFF702FD04B080BD186702000411000088
:100CF00082B001900091009800780199044A8850D0
:100D000000984078019901221203885002B0704780
:100D100008100000F0B581B00126194F3846103890
:100D20000068184C214610390D68800507D4E80783
:100D30000FD1E80314D428061AD401B0F0BD700214
:100D4000009000F021F83868009908433860E807FF
:100D5000EFD000F02BF8206830432060E803EAD59C
:100D6000360400F033F82068304320602806E4D5CC
:100D700000F03CF8206880210143216001B0F0BD03
:100D800048100A4048300A4006480068C00501D5AE
:100D9000012001E00020C04303490A688018086070
:100DA0007047C04680130A400000202016480068A3
:100DB000800702D50020C04300E0012002490A68F4
:100DC000801808607047C046040020200E48006864
:100DD000400401D5012001E00020C04302490A6817
:100DE000801808607047C046080020200648006848
:100DF000400601D5012001E00020C04303490A68F4
:100E0000801808607047C04680330A400C002020DC
:100E100080B512480221024AFFF7A4FC80BDC046FB
:100E2000341F000080B50D480321024AFFF79AFCE9
:100E300080BDC0464C1F000080B508480021024A12
:100E4000FFF790FC80BDC046641F000080B50348DA
:100E50000121034AFFF786FC80BDC04600A0424046
:100E60007C1F000080B5FFF7DDFFFFF7D1FFFFF724
:100E7000EDFFFFF7E1FF80BDF0B583B03C4B84246C
:100E800001941C66012210023A4908605C66500217
:100E90000290086083201867374D833D0D605867C6
:100EA00050030860354F8620786250053449086049
:100EB0008820B862900500920860324EF11C79607B
:100EC000396050067D6805437D603D6805433D609F
:100ED0008220B861751CFD613C1F019A22603C466E
:100EE000083C2160B860FD6018655D65812119646A
:100EF0005964DE649E6459639963DE621E633846FA
:100F00000C380160D967103F3E609E67D9669966CC
:100F1000DE659E6519605960194B184630381649D0
:100F200001601960813E184801683143016017482B
:100F3000016A029B194301620168194301600D4B6C
:100F40001846303812490160196012480168124B86
:100F50000B4303600169009A114301610F48016A64
:100F60000F4A1143016201681143016003B0F0BDF3
:100F700004804240D0320A408310000094804240F6
:100F8000D0120A408100040090130A4028100A4041
:100F9000348C000090330A400140000028300A40A1
:100FA0008100010080B508480849FFF727FC0320AD
:100FB000400207490A6802430A60012000020A68E9
:100FC00002430A6080BDC04600200F40941F00000D
:100FD00000320F40F0B581B02B4C2C492046FFF772
:100FE0001BFE2B492046FFF723FC002500952046D9
:100FF00029462A462B46FFF7DBFD204629462A468E
:10100000FFF764FD204629462A46FFF7EFFD01263B
:101010000096204629462A462B46FFF7C9FD204662
:1010200029463246FFF752FD204629463246FFF751
:10103000DDFD02270097204629462A462B46FFF76A
:10104000B7FD204629463A46FFF740FD204629468F
:101050003A46FFF7CBFD03270097204629462A464C
:101060002B46FFF7A5FD204629463A46FFF72EFD01
:10107000204629463A46FFF7B9FD064886600F210B
:10108000016001B0F0BDC04600008640961F000020
:101090009C1F00000011864070B582B0194C1A499F
:1010A0002046FFF7B9FD19492046FFF739FC002516
:1010B0000095204629462A462B46FFF779FD204613
:1010C00029462A46FFF702FD204629462A46FFF711
:1010D0008DFD01260096204629462A462B46FFF71D
:1010E00067FD204629463246FFF7F0FC2046294698
:1010F0003246FFF77BFD064886600321016002B09F
:1011000070BDC04600808640A41F0000A81F0000DC
:10111000009186401048002101600320C1430F4820
:10112000021F13680B401360416801229143416024
:10113000110242688A434260016830229143016093
:1011400001680F2291430160FF20000204490A68F0
:1011500082430A607047C04608030B4004010B40FD
:1011600000E400E010B50C4C0C492046FFF754FD9C
:101170000B492046FFF760FC0A4801680122114331
:1011800001600948016840230B43BF218B43036082
:101190000648026010BDC04600400840B01F000075
:1011A000B41F00002850084010E400E00851084037
:1011B00010B5154C15492046FFF79AFD14492046F5
:1011C000FFF76AFD0320C103124802688A430260E8
:1011D00011490A68624B134011330B604A681723A8
:1011E0001343282293434B60416801221140436816
:1011F00093435918416001467839D3020B60016866
:101200001143016010BDC04600005040C81F0000DF
:10121000CA1F0000001150401011504010B5154C6D
:1012200015492046FFF764FD14492046FFF734FDB9
:101230000320C103124802688A43026011490A6808
:10124000474B1340D0330B604A68152313432A22BF
:1012500093434B60416801221140436893435918FE
:10126000416001467839D3020B6001681143016087
:1012700010BDC04600201040D41F0000D61F000043
:10128000003110401031104010B5154C1549204662
:10129000FFF72EFD14492046FFF7FEFC0320C10393
:1012A000124802688A43026011490A682C4B1340B5
:1012B000D0330B604A68152313432A2293434B60B3
:1012C0004168012211404368934359184160014627
:1012D0007839D3020B6001681143016010BDC0462C
:1012E00000801040E01F0000E21F0000009110404D
:1012F0001091104010B5154C15492046FFF7F8FC29
:1013000014492046FFF7C8FC0320C10312480268B5
:101310008A43026011490A68114B1340D0330B60B5
:101320004A68152313432A2293434B6041680122E4
:101330001140436893435918416001467839D302FC
:101340000B6001681143016010BDC04600001040F1
:10135000EC1F0000EE1F00000011104010111040A3
:101360000000FFFF80B500F027F8FFF785FDFFF7CD
:10137000D1FEFFF72FFEFFF78FFEFFF7F3FEFFF71B
:1013800011FEFFF74BFFFFF713FFFFF7B3FFFFF768
:101390007BFFFFF767FD7420044900220A54B82040
:1013A00003490A542C2003490A5480BDD40020204C
:1013B000180020204C012020F0B581B01448154AB7
:1013C0004260154842601548426015484260154D1C
:1013D0006A60154E7260154F7A60154B5A60154958
:1013E0004A6015484260154A094C22600A4C226046
:1013F0000A4C22600A4C22602A6032603A601A600D
:101400000A6002601020FFF729F901B0F0BDC04664
:1014100000080A40030000B100280A400008864086
:10142000008886400048084000280F4000281040EF
:1014300000085040000810400088104001000026BD
:1014400070B50D480068C0B2012814D10B4E306849
:101450008007C20F01240A4D2046294600F068F893
:1014600008A1204600F064F830688007C20F2046CB
:10147000294600F05DF870BD2050084020B242407F
:10148000F81F0000616161616161616161616161B9
:10149000616161616161616161616161616161613C
:1014A000616161616161616161616161616161612C
:1014B000616161616161616131313131310D0A0018
:1014C000064807490160074801600748016007486E
:1014D0000160124802210160016070470400202071
:1014E000FFEF000000002020080020200C0020203A
:1014F000FFF738FFFFF7E4FF01200104074A1160FE
:1015000007490A6802430A600648C8210160064884
:101510000160064C2046FFF7A1F8FBE700E100E080
:10152000045808401400202010002020FFE0F5059A
:1015300082B070B582B00D4606460692079306ABA0
:101540000193214C214920462A4600F04DF8711E96
:10155000032930D87944097949008F44010C1722B6
:101560001B494C621E4A8A6280B2C862086A022223
:1015700002430A621FE016494C63184A8A6380B22C
:10158000C863086B022202430A6314E010494C60EE
:10159000114A8A6080B2C8600868022202430A6069
:1015A00009E00B494C610B4A8A6180B2C861086945
:1015B000022202430A610B48FFF750F802B070BCE8
:1015C00001BC02B00047C0467C012020FF010000A2
:1015D00000B24240201110402091104020311040B4
:1015E00020115040007102007CB51D4616460C00CB
:1015F00001D0611E00E0002101910090054B6A4678
:101600002946304600F0EEF8002C02D0009A002166
:1016100011707CBD1D1F00002021020C01D0102183
:101620001046020A01D010460839020901D01046BE
:10163000091F820801D01046891E420801D0881E69
:101640007047081A7047000002E008C8121F08C15E
:10165000002AFAD170470000704700000000000027
:10166000002001E001C1121F002AFBD170470000D9
:10167000F0B51FB486B00998089A030D0021024303
:1016800014D05148514A1818504305141198012894
:1016900010981AD0281A401C00264D4F4D4900962C
:1016A00001910490002812DA444211E011980124BB
:1016B00049A3012801D11098C1430698119A84606A
:1016C0000360C26041600BB0F0BD4042E4E70446F5
:1016D000210500203F4A001C51410391029012E075
:1016E000E00707D032463B4601990098FEF7AEFD71
:1016F0000191009032463B4610461946FEF7A6FD82
:1017000006460F466410002CEAD10498039B00287B
:10171000029A0999089806DAFEF798FD019B009A4B
:10172000FEF794FD05E0FEF7DBFE019B009AFEF755
:10173000D7FE04460E460022284BFEF769FF03D869
:101740000020C043014607E00022254B20463146D9
:10175000FEF7CAFCFEF73CFF102409E0002C0ADB70
:101760000A220023FEF7F9FD079B30321A55641E4A
:1017700002460A43F2D11122641C079B121B1C195A
:10178000119B012B03D0012308430ED10AE008432B
:1017900004D0112010900020119077E71098151AAE
:1017A0006D1E0BE01098824202DD00236D1C03E0E9
:1017B000824201DA00236D1E002BEED006981199AB
:1017C0008260C16030C07EE701FCFFFF104D000069
:1017D000000014400000F03F300000000000F04323
:1017E0000000E03FFFB597B00646002518E2252827
:1017F00077D100242746FD49049400E00443761C79
:1018000032780120203A90400842F7D130782A28D7
:101810000ED00222307801463039092916D80499B1
:101820000A235943303940181443761C0490F1E7D9
:10183000189802C804911890002904DA0120400386
:1018400004434842049002200443761C30782E283A
:1018500014D1042004437078761C2A2809D11898E2
:10186000761C80C8189009E00A214F43303FC71901
:10187000761C3078014630390929F5D930786C2842
:1018800010D006DC4C281AD068280ED06A2817D150
:1018900004E0742813D07A2812D110E0012040050A
:1018A00004430CE00121090501E0032109050C4373
:1018B0007178814203D1012000052418761C761C22
:1018C0003078119066280BD013DC58287DD009DCC5
:1018D00000287BD04528F6D04628F4D047281AD1D6
:1018E000A5E118E0632835D0642870D0652812D1AE
:1018F0009DE170286CD008DC6728F1D069287BD086
:101900006E280DD06F2806D1BAE073282ED0752826
:1019100071D0782859D01A9A199990476D1C7EE198
:101920006002400F022809D003280DD0042818981F
:1019300001680DD00D60001D189070E11898EA172D
:1019400001680D604A60F6E7189801680D80F2E7BB
:101950000D70F0E718986A4601781172001D189012
:101960000020507202A80090012005E0189802C8DB
:10197000189000200091C04361070DD5002101E0BF
:101980000199491C0191B94212DA8142F8DB009AAF
:10199000515C0029F4D10BE0002101E00199491CC0
:1019A00001918142FADB019A0099895C0029F5D105
:1019B000019904981A9B471A21463846199A00F053
:1019C00097FA0199401945180BE04FE02CE113E01C
:1019D0004EE0009800990078491C00911A9A1999D4
:1019E00090470198401E0190401CF2D12146384694
:1019F0001A9B199A10E137E00A200021009001910A
:101A00006002410F022907D0189A01CA1892C21722
:101A10009446032908D00AE01898C01DC108C900DF
:101A200005C91891944607E000B2C21794460429EC
:101A300002D140B2C1178C4600226146944506DAB5
:101A40000A460021404291418C462D2102E02105A9
:101A500004D52B216A461173012103E0E10701D06F
:101A60002021F7E7029155E00A200AE0102008E063
:101A7000102000900021042004430191082703E076
:101A800008200021019100906002410F022907D037
:101A9000189A01CA189200229446032908D008E037
:101AA0001898C01DC108C90005C91891944603E0E3
:101AB00080B2042900D1C0B200210291210729D5AA
:101AC0001199702906D0009A1021019B4A401A43AF
:101AD00005D00EE040216A461173012108E06146FD
:101AE000014306D030216A461173119951730221C6
:101AF0000291009A0821019B4A401A430AD161468B
:101B0000014301D1610705D530216A4611730121D6
:101B10007F1E02911199582904D035A10E910DA96B
:101B20000D910DE037A1F9E76146019B009AFEF7A0
:101B300014FC0E9B8C469B5C0D9A521E0D921370EA
:101B400061460143F0D10D9805A9081A2030019093
:101B5000600703D501200004844300E001270198B9
:101B6000874201DD381A00E00020019900904118F9
:101B7000029809180498401A0490E00306D42146FC
:101B80001A9B199A049800F0B3F94519002706E04A
:101B900003A81A9AC05D199990476D1C7F1C029882
:101BA0008742F5DBE0030CD521461A9B199A04986D
:101BB00000F09EF9451904E01A9A302019999047CF
:101BC0006D1C0099481E00900029F5DC08E00D9876
:101BD0000D990078491C0D911A9A199990476D1C1E
:101BE0000199481E01900029F1DC63E109280100F8
:101BF0003031323334353637383961626364656683
:101C00000000000030313233343536373839414244
:101C1000434445460000000000F05AF94519761C7F
:101C20003078002800D0E2E528461BB0F0BD600700
:101C300000D406271898C01DC108C90048680A6862
:101C40000831C30FDB071891190001D09CA108E0EF
:101C5000210501D59BA104E0E10701D09AA100E094
:101C60009AA1430011985B08109165280CD006DCFE
:101C7000452809D046281DD0472841D141E0662893
:101C800018D067283CD13CE00021112F01DB112046
:101C900000E0781C0191009008A911A8FFF7E8FC6A
:101CA000139905910021119A15927F1C12980197A2
:101CB000009150E00120C00703900120019008A985
:101CC000009711A8FFF7D4FC139A149905920022EB
:101CD000119B009212981593059A0192002901D048
:101CE000104602E0791C40180190381A01D501987D
:101CF00004E04042401E0090781C0190C01B0290FE
:101D000043E0012F00DA01270021112F01DD11200E
:101D100000E038460191009008A911A8FFF7A8FC3F
:101D200013990591119A002112981592009101972B
:101D300021070CD40599B94201DB019900E001911A
:101D4000012904DD159A491E515C302906D0B8429C
:101D500001DA011D05DA0121029115E00199491E00
:101D6000EDE7002805DC0099411800910199091A56
:101D700003E0019A411C914200DD01910099401A53
:101D8000401C02900120C0070390200706D402994E
:101D90000198814202DB0020C04302900020694686
:101DA000C87707AF012103980337C907884224D0B9
:101DB000022011902B201290039800280CDA404248
:101DC00003902D20129007E00A210398FEF7A6FA4F
:101DD00030317F1E039039701199481E11900029EF
:101DE000F2DC03980028EFD1791E12980870307841
:101DF000202108404530BF1E387006A8C01BC01DFA
:101E0000039010980078002800D001200199411813
:101E10000298C0170918039809180498401A401E20
:101E20000490E00306D421461A9B199A049800F006
:101E30005FF8451910980078002803D01A9A19996C
:101E400090476D1CE00324D521461A9B199A0498EB
:101E500000F04EF845191CE00098002807DB0099B7
:101E60000598884203DD1598405C199901E019999D
:101E700030201A9A904700986D1C401C00900298E0
:101E8000401E0290002804D11A9A2E2019999047DA
:101E90006D1C0199481E01900029DDDC05E03878B1
:101EA0001A9A7F1C199990476D1C0399481E03903C
:101EB0000029F4DC21461A9B199A0498ACE600002C
:101EC0002D0000002B00000020000000000000009A
:101ED000F8B5044600251E461746880404D405E0DC
:101EE00039462020B0476D1C641EF9D52846F8BD40
:101EF000FFB50446002581B01E46C80301D5302732
:101F000000E02027880404D505E038460399B0474F
:101F10006D1C641EF9D5284605B0F0BD4A68002A3C
:101F200006D00A68531C0B6010704868401E486059
:101F300070470000100000000000000000000000DA
:101F40000000000000000300000000001600000078
:101F5000000000000000000000000000000003007E
:101F6000000000001200000000000000000000005F
:101F7000000000000000030000000000140000004A
:101F8000000000000000000000000000000003004E
:101F900000000000080008000000000010270000FA
:101FA0002001010008071800800C0000200100003B
:101FB0000800FF0002000000691800000000000097
:101FC00000000000000000000800000018000000F1
:101FD0000030000008000000180000000030000081
:101FE0000800000018000000003000000800000099
:101FF0001800000000300000256868750D0A000018
:1020000020200000000020201000000048160000E2
:102010003020000010002020700400006016000036
:10202000FFEF0000FFEF0000FFEF0000FFEF0000F8
:04000005000000C136
:00000001FF
